:020000040800F2
:1000000000000220B90B0008DD0A0008E50A00081C
:10001000ED0A0008F50A0008FD0A000800000000CB
:100020000000000000000000000000000146000881
:10003000050B000800000000F148000859490008BD
:10004000090C0008090C0008090C0008090C00083C
:10005000090C0008090C0008090C0008090C00082C
:10006000090C0008090C0008090C0008090C00081C
:10007000090C0008090C0008090C0008090C00080C
:10008000090C0008090C0008090C0008090C0008FC
:10009000090C0008090C0008090C0008090C0008EC
:1000A000090C0008090C0008090C0008090C0008DC
:1000B000090C0008090C0008090C0008090C0008CC
:1000C000090C0008090C0008090C0008090C0008BC
:1000D000090C0008090C0008090C0008090C0008AC
:1000E000090C0008090C0008090C0008090C00089C
:1000F000090C0008090C0008090C0008090C00088C
:10010000090C0008090C0008090C0008090C00087B
:10011000090C0008090C0008150B0008090C000860
:10012000090C0008090C0008090C0008090C00085B
:10013000090C0008090C0008090C0008090C00084B
:10014000090C0008090C0008090C0008090C00083B
:10015000090C0008090C0008090C0008090C00082B
:10016000090C0008090C0008090C0008090C00081B
:10017000090C0008090C0008090C00080000000028
:08018000090C0008090C00083D
:1001900010B5054C237833B9044B13B10448AFF3C1
:1001A00000800123237010BD6400002000000000C7
:1001B0004858000808B5034B1BB103490348AFF387
:1001C000008008BD000000006800002048580008BA
:1001D000034613F8012B002AFBD1181A0138704787
:1001E00001F0FF01102A2BDB10F0070F08D010F8E8
:1001F000013B013A8B422DD010F0070F42B3F6D1EC
:10020000F0B441EA012141EA014122F007047FF004
:1002100000070023F0E80256083C85EA010586EA5B
:10022000010685FA47F5A3FA87F586FA47F6A5FA97
:1002300087F68EB9EED1F0BC01F0FF0102F00702A3
:1002400032B110F8013B013A83EA010313B1F8D14E
:100250000020704701387047002D06BF354603382F
:10026000073815F0010F07D1013015F4807F02BF68
:10027000013015F4C03F0130F0BC0138704700BFB9
:1002800053B94AB9002908BF00281CBF4FF0FF31FD
:100290004FF0FF3000F06AB9ADF1080C6DE904CE03
:1002A00000F006F8DDF804E0DDE9022304B0704751
:1002B0002DE9F047089D0C46002B4ED194468C4505
:1002C0008646B2FA82F262D94AB1C2F12003914065
:1002D00020FA03F30CFA02FC194300FA02FE4FEA7B
:1002E0001C471FFA8CF6B1FBF7F44FEA1E4307FBDD
:1002F000141143EA014304FB06F199420AD91CEBAD
:10030000030304F1FF3080F01281994240F20F8123
:10031000023C6344591A1FFA8EF3B1FBF7F007FB56
:10032000101143EA014300FB06F69E420AD91CEB7A
:10033000030300F1FF3180F0FC809E4240F2F9801F
:10034000634402389B1B40EA044000211DB1D340A6
:100350000022C5E90032BDE8F0878B4205D90DB116
:10036000C5E9000100210846F5E7B3FA83F1002949
:1003700046D1A34202D39042C0F0F080861A64EBCB
:1003800003030120002DE6D0C5E90063E3E7002A5E
:1003900040F09080A1EB0C044FEA1C481FFA8CF748
:1003A0000121B4FBF8F64FEA1E4308FB164443EA6A
:1003B000044307FB06F0984208D91CEB030306F13F
:1003C000FF3402D2984200F2CD8026461C1A1FFA52
:1003D0008EF3B4FBF8F008FB104443EA044300FB3F
:1003E00007F79F4208D91CEB030300F1FF3402D248
:1003F0009F4200F2B0802046DB1B40EA0640A5E7A2
:10040000C1F120068B4022FA06F71F4320FA06FCB2
:1004100004FA01F343EA0C03F44000FA01F8380C43
:100420004FEA1349B4FBF0FE1FFA87FC00FB1E44A1
:1004300049EA04440EFB0CF9A14502FA01F20AD97B
:100440003C190EF1FF3A80F08480A14540F2818092
:10045000AEF1020E3C44A4EB09041FFA83F9B4FB8D
:10046000F0F300FB134449EA044403FB0CFCA445ED
:1004700007D93C1903F1FF3067D2A44565D9023B87
:100480003C4443EA0E40A0FB0293A4EB0C049C42C4
:10049000CE469C4651D34ED055B1B8EB0E0364EB1B
:1004A0000C0404FA06F6CB401E43CC40C5E90064B8
:1004B000002150E7C2F1200320FA03F10CFA02FCFC
:1004C00024FA03F394400C434FEA1C4800FA02FE5E
:1004D0001FFA8CF7B3FBF8F008FB1031230C43EA4A
:1004E000014300FB07F1994208D91CEB030300F11B
:1004F000FF362CD299422AD9023863445B1AA4B23F
:10050000B3FBF8F108FB113344EA034401FB07F3A2
:10051000A34208D91CEB040401F1FF3613D2A34215
:1005200011D902396444E41A41EA004139E704462A
:10053000F0E6084606E7C845AED2B9EB020E63EB1B
:10054000070C0138A8E73146EDE7034699E7304646
:10055000D4E7D6467FE7634402384DE70646234694
:1005600008460FE7023E634430E700BF704700BF14
:1005700080B582B002AF00F049FB00F07FF800F0D8
:1005800011F900F0E5F80023019300230093002304
:1005900082222F492F4802F069FD03465AB22E4BA2
:1005A0001A702D4B93F90030012B0ED12B492C489A
:1005B00004F0AAFC2A48FFF70BFE03469AB2642314
:1005C0002749284801F0D2FD0DE02749244804F0CE
:1005D0009BFC2348FFF7FCFD03469AB264232049A5
:1005E000204801F0C3FD0023019300230093002362
:1005F00082221E491E4802F039FD03465AB2164BAC
:100600001A70154B93F90030012B0ED1194914487B
:1006100004F07AFC1248FFF7DBFD03469AB264232C
:100620000F49104801F0A2FD0DE013490C4804F0F9
:100630006BFC0B48FFF7CCFD03469AB264230849D4
:10064000084801F093FD02F0DDFE00BFFDE700BFAA
:100650006058000845080008C800002064580008D9
:10066000CC00002080000020845800089858000822
:100670008D080008A0580008C058000880B594B044
:1006800000AF07F1200330220021184604F05CFC83
:1006900007F10C0300221A605A609A60DA601A614E
:1006A0000023BB60284B1B6C274A43F08053136424
:1006B000254B1B6C03F08053BB60BB6800237B6041
:1006C000224B1B68214A43F4804313601F4B1B6875
:1006D00003F480437B607B6801233B624FF48033EB
:1006E0007B620223BB634FF48003FB6305233B64FF
:1006F000D2237B640223BB640423FB6407F1200341
:10070000184600F077FD0346002B01D000F0F4F806
:100710000F23FB6002233B6100237B614FF4A05356
:10072000BB614FF4A053FB6107F10C030521184690
:1007300000F0D8FF0346002B01D000F0DDF800BF29
:100740005037BD4680BD00BF0038024000700040F9
:1007500080B500AF114B124A1A60104B4FF4E132D2
:100760005A600E4B00229A600C4B0022DA600B4B51
:1007700000221A61094B0C225A61084B00229A612F
:10078000064B0022DA61054801F0A0FC0346002B6D
:1007900001D000F0B1F800BF80BD00BF8000002094
:1007A0000048004080B588B000AF07F10C0300227C
:1007B0001A605A609A60DA601A610023BB601F4BAE
:1007C0001B6B1E4A43F0100313631C4B1B6B03F09F
:1007D0001003BB60BB6800237B60184B1B6B174A80
:1007E00043F080031363154B1B6B03F080037B60A6
:1007F0007B6800233B60114B1B6B104A43F00203E4
:1008000013630E4B1B6B03F002033B603B6801223A
:1008100006210B4800F0BAFC0623FB6011233B6164
:1008200000237B610023BB6107F10C0319460448D8
:1008300000F010FB00BF2037BD4680BD00380240ED
:100840000010024080B582B000AF78600B490C48C0
:1008500004F05AFB0A48FFF7BBFC03469AB2642334
:100860000749084801F082FC0421074800F0A7FC72
:100870004FF47A7002F046FD00BFE7E7D458000855
:10088000CC000020800000200010024080B582B023
:1008900000AF78600B490C4804F036FB0A48FFF7BC
:1008A00097FC03469AB264230749084801F05EFCAE
:1008B0000221074800F083FC4FF4FA6002F022FDA9
:1008C00000BFE7E7EC580008CC00002080000020C3
:1008D0000010024080B582B000AF78607B681B6872
:1008E000044A934201D100F0B3F900BF0837BD4676
:1008F00080BD00BF0010004080B400AF72B600BFE2
:1009000000BFFDE780B483B000AF00237B60104BD5
:100910005B6C0F4A43F4804353640D4B5B6C03F4F0
:1009200080437B607B6800233B60094B1B6C084A5B
:1009300043F080531364064B1B6C03F080533B6001
:100940003B6800BF0C37BD465DF8047B704700BFB5
:100950000038024080B58AB000AF786007F1140318
:1009600000221A605A609A60DA601A617B681B681C
:10097000194A93422CD100233B61184B1B6C174A38
:1009800043F480231364154B1B6C03F480233B61F9
:100990003B690023FB60114B1B6B104A43F00203C1
:1009A00013630E4B1B6B03F00203FB60FB684FF4F9
:1009B00040637B610223BB610023FB6103233B6235
:1009C00007237B6207F114031946054800F042FA39
:1009D00000BF2837BD4680BD0048004000380240B7
:1009E0000004024080B58EB000AF78600023FB6247
:1009F0000023BB620023FB60334B1B6C324A43F085
:100A000010031364304B1B6C03F01003FB60FB6896
:100A100007F1100207F114031146184601F082F89D
:100A20003B6AFB62FB6A002B03D101F053F8786349
:100A300004E001F04FF803465B007B637B6B234AC5
:100A4000A2FB03239B0C013BBB62214B214A1A6092
:100A50001F4B40F2E732DA601D4ABB6A53601C4B01
:100A600000221A611A4B00229A60194B00229A61E7
:100A7000174801F089F8034687F8333097F8333088
:100A8000002B1BD1124801F0D9F8034687F8333008
:100A900097F83330002B11D1362000F0CDF97B6868
:100AA0000F2B08D800227968362000F0A9F90A4AED
:100AB0007B68136002E0012387F8333097F8333006
:100AC00018463837BD4680BD0038024083DE1B43E0
:100AD000EC000020001000400400002080B400AFB3
:100AE00000BFFDE780B400AF00BFFDE780B400AFFA
:100AF00000BFFDE780B400AF00BFFDE780B400AFEA
:100B000000BFFDE780B400AF00BFBD465DF8047BC9
:100B10007047000080B500AF024801F0FFF800BF49
:100B200080BD00BFEC00002080B586B000AF7860CB
:100B3000144A154BD31A7B617B693B61134B1B68CD
:100B4000002B02D1114B124A1A60104B1A687B68B5
:100B500013443A699A4207D204F0FEF903460C2284
:100B60001A604FF0FF3309E0084B1B68FB60074B2E
:100B70001A687B681344054A1360FB6818461837E7
:100B8000BD4680BD000002200004000034010020AA
:100B90002830012080B400AF064BD3F88830054AD6
:100BA00043F47003C2F8883000BFBD465DF8047B93
:100BB000704700BF00ED00E0DFF834D0FFF7EAFF38
:100BC0000C480D490D4A002302E0D458C4500433A8
:100BD000C4188C42F9D30A4A0A4C002301E013607E
:100BE0000432A242FBD304F0BDF9FFF7C1FC704709
:100BF0000000022000000020640000207859000856
:100C00006400002028300120FEE7000080B500AF1E
:100C10000E4B1B680D4A43F4007313600B4B1B68AB
:100C20000A4A43F480631360084B1B68074A43F485
:100C300080731360032000F0D8F80F20FFF7D2FE76
:100C4000FFF760FE0023184680BD00BF003C024055
:100C500080B400AF064B1B781A46064B1B68134442
:100C6000044A136000BFBD465DF8047B704700BFB7
:100C7000080000203801002080B400AF034B1B683F
:100C80001846BD465DF8047B704700BF3801002060
:100C900080B485B000AF78607B6803F00703FB6029
:100CA0000C4BDB68BB60BA684FF6FF031340BB60B8
:100CB000FB681A02BB68134343F0BF6343F400337D
:100CC000BB60044ABB68D36000BF1437BD465DF803
:100CD000047B704700ED00E080B400AF044BDB689C
:100CE0001B0A03F007031846BD465DF8047B7047F6
:100CF00000ED00E080B483B000AF0346FB7197F9CC
:100D00000730002B0BDBFB7903F01F02074997F933
:100D100007305B09012000FA02F241F8232000BFEE
:100D20000C37BD465DF8047B704700BF00E100E072
:100D300080B483B000AF03463960FB7197F9073088
:100D4000002B0ADB3B68DAB20C4997F90730120135
:100D5000D2B20B4483F800230AE03B68DAB20849B8
:100D6000FB7903F00F03043B1201D2B20B441A7655
:100D700000BF0C37BD465DF8047B704700E100E022
:100D800000ED00E080B489B000AFF860B9607A602F
:100D9000FB6803F00703FB61FB69C3F10703042B46
:100DA00028BF0423BB61FB690433062B02D9FB690E
:100DB000033B00E000237B614FF0FF32BB6902FA86
:100DC00003F3DA43BB681A407B699A404FF0FF3166
:100DD0007B6901FA03F3D9437B680B401343184640
:100DE0002437BD465DF8047B704780B582B000AF04
:100DF00078607868FFF74CFF00BF0837BD4680BDBC
:100E000080B586B000AF0346B9607A60FB730023FB
:100E10007B61FFF761FF78617A68B9687869FFF7ED
:100E2000B1FF024697F90F3011461846FFF780FFD1
:100E300000BF1837BD4680BD80B582B000AF034605
:100E4000FB7197F907301846FFF754FF00BF0837CA
:100E5000BD4680BD80B489B000AF786039600023A2
:100E60007B6100233B610023BB610023FB616BE1DD
:100E70000122FB6902FA03F37B613B681B687A6914
:100E800013403B613A697B699A4240F05A813B6862
:100E90005B6803F00303012B05D03B685B6803F03C
:100EA0000303022B30D17B689B68BB61FB695B004D
:100EB000032202FA03F3DB43BA691340BB613B68C8
:100EC000DA68FB695B0002FA03F3BA691343BB619A
:100ED0007B68BA699A607B685B68BB610122FB69C9
:100EE00002FA03F3DB43BA691340BB613B685B68FA
:100EF0001B0903F00102FB6902FA03F3BA69134309
:100F0000BB617B68BA695A603B685B6803F00303A6
:100F1000032B17D07B68DB68BB61FB695B00032296
:100F200002FA03F3DB43BA691340BB613B689A687A
:100F3000FB695B0002FA03F3BA691343BB617B6888
:100F4000BA69DA603B685B6803F00303022B23D1C4
:100F5000FB69DA087B68083253F82230BB61FB6911
:100F600003F007039B000F2202FA03F3DB43BA6985
:100F70001340BB613B681A69FB6903F007039B00E0
:100F800002FA03F3BA691343BB61FB69DA087B68B1
:100F90000832B96943F822107B681B68BB61FB69A2
:100FA0005B00032202FA03F3DB43BA691340BB611F
:100FB0003B685B6803F00302FB695B0002FA03F322
:100FC000BA691343BB617B68BA691A603B685B68A6
:100FD00003F44033002B00F0B4800023FB60604B2F
:100FE0005B6C5F4A43F4804353645D4B5B6C03F47A
:100FF0008043FB60FB685B4AFB699B08023352F845
:101000002330BB61FB6903F003039B000F2202FA4C
:1010100003F3DB43BA691340BB617B68524A9342D6
:101020002BD07B68514A934225D07B68504A93422B
:101030001FD07B684F4A934219D07B684E4A934237
:1010400013D07B684D4A93420DD07B684C4A934243
:1010500007D07B684B4A934201D107230EE0082357
:101060000CE006230AE0052308E0042306E003233E
:1010700004E0022302E0012300E00023FA6902F009
:10108000030292009340BA691343BB613549FB697F
:101090009B080233BA6941F823203B4B9B68BB6134
:1010A0003B69DB43BA691340BB613B685B6803F48F
:1010B0008013002B03D0BA693B691343BB61324AEA
:1010C000BB699360304BDB68BB613B69DB43BA694A
:1010D0001340BB613B685B6803F40013002B03D033
:1010E000BA693B691343BB61274ABB69D360264B8E
:1010F0005B68BB613B69DB43BA691340BB613B681A
:101100005B6803F40033002B03D0BA693B691343D7
:10111000BB611D4ABB6953601B4B1B68BB613B69CC
:10112000DB43BA691340BB613B685B6803F48033FF
:10113000002B03D0BA693B691343BB61124ABB69F8
:101140001360FB690133FB61FB690F2B7FF690AEE7
:1011500000BF00BF2437BD465DF8047B704700BF69
:101160000038024000380140000002400004024004
:1011700000080240000C024000100240001402402F
:1011800000180240001C0240003C014080B483B0C3
:1011900000AF78600B467B8013467B707B78002B1A
:1011A00003D07A887B689A6103E07B881A047B68A5
:1011B0009A6100BF0C37BD465DF8047B704780B470
:1011C00085B000AF78600B467B807B685B69FB6015
:1011D0007A88FB6813401A04FB68D9437B880B406C
:1011E0001A437B689A6100BF1437BD465DF8047BE3
:1011F0007047000080B586B000AF78607B68002B38
:1012000001D1012367E27B681B6803F00103002B17
:1012100075D0884B9B6803F00C03042B0CD0854BD6
:101220009B6803F00C03082B12D1824B5B6803F41C
:101230008003B3F5800F0BD17E4B1B6803F40033A2
:10124000002B5BD07B685B68002B57D1012342E207
:101250007B685B68B3F5803F06D1764B1B68754AA7
:1012600043F4803313601DE07B685B68B3F5A02F07
:101270000CD1704B1B686F4A43F4802313606D4B95
:101280001B686C4A43F4803313600BE0694B1B68A6
:10129000684A23F480331360664B1B68654A23F465
:1012A000802313607B685B68002B13D0FFF7E4FC9E
:1012B000386108E0FFF7E0FC02463B69D31A642B73
:1012C00001D9032307E25B4B1B6803F40033002BB7
:1012D000F0D014E0FFF7D0FC386108E0FFF7CCFC59
:1012E00002463B69D31A642B01D90323F3E1514B26
:1012F0001B6803F40033002BF0D100E000BF7B68D3
:101300001B6803F00203002B63D04A4B9B6803F079
:101310000C03002B0BD0474B9B6803F00C03082BEE
:101320001CD1444B5B6803F48003002B16D1414B66
:101330001B6803F00203002B05D07B68DB68012BE0
:1013400001D00123C7E13B4B1B6823F0F8027B6807
:101350001B69DB00374913430B603AE07B68DB68AD
:10136000002B20D0344B01221A60FFF785FC386136
:1013700008E0FFF781FC02463B69D31A022B01D932
:101380000323A8E12B4B1B6803F00203002BF0D0D2
:10139000284B1B6823F0F8027B681B69DB0025499A
:1013A00013430B6015E0244B00221A60FFF764FC26
:1013B000386108E0FFF760FC02463B69D31A022B54
:1013C00001D9032387E11B4B1B6803F00203002BA9
:1013D000F0D17B681B6803F00803002B36D07B68D4
:1013E0005B69002B16D0154B01221A60FFF744FCF5
:1013F000386108E0FFF740FC02463B69D31A022B34
:1014000001D9032367E10B4B5B6F03F00203002B51
:10141000F0D01BE0094B00221A60FFF72DFC386169
:101420000EE0FFF729FC02463B69D31A022B07D9CD
:10143000032350E10038024000004742800E47423B
:10144000884B5B6F03F00203002BEAD17B681B68BB
:1014500003F00403002B00F097800023FB75814B01
:101460001B6C03F08053002B0FD10023BB607D4B1E
:101470001B6C7C4A43F0805313647A4B1B6C03F063
:101480008053BB60BB680123FB75774B1B6803F47B
:101490008073002B18D1744B1B68734A43F480731C
:1014A0001360FFF7E9FB386108E0FFF7E5FB024650
:1014B0003B69D31A022B01D903230CE16A4B1B6849
:1014C00003F48073002BF0D07B689B68012B06D15E
:1014D000644B1B6F634A43F0010313671CE07B6896
:1014E0009B68052B0CD15F4B1B6F5E4A43F00403D6
:1014F00013675C4B1B6F5B4A43F0010313670BE000
:10150000584B1B6F574A23F001031367554B1B6F52
:10151000544A23F0040313677B689B68002B15D0A3
:10152000FFF7AAFB38610AE0FFF7A6FB02463B691A
:10153000D31A41F28832934201D90323CBE0494BBD
:101540001B6F03F00203002BEED014E0FFF794FBB7
:1015500038610AE0FFF790FB02463B69D31A41F27B
:101560008832934201D90323B5E03E4B1B6F03F051
:101570000203002BEED1FB7D012B05D1394B1B6CF7
:10158000384A23F0805313647B689B69002B00F07A
:10159000A180344B9B6803F00C03082B5CD07B6864
:1015A0009B69022B41D1314B00221A60FFF764FB8B
:1015B000386108E0FFF760FB02463B69D31A022B53
:1015C00001D9032387E0274B1B6803F00073002B2E
:1015D000F0D17B68DA697B681B6A1A437B685B6AB7
:1015E0009B011A437B689B6A5B08013B1B041A43FF
:1015F0007B68DB6A1B061B4913434B601B4B0122B4
:101600001A60FFF739FB386108E0FFF735FB024647
:101610003B69D31A022B01D903235CE0114B1B68F1
:1016200003F00073002BF0D054E0104B00221A603E
:10163000FFF722FB386108E0FFF71EFB02463B691B
:10164000D31A022B01D9032345E0064B1B6803F094
:101650000073002BF0D13DE07B689B69012B07D123
:10166000012338E00038024000700040600047422B
:101670001B4B5B68FB607B689B69012B28D0FB6878
:1016800003F480027B68DB699A4221D1FB6803F096
:101690003F027B681B6A9A421AD1FA6847F6C07308
:1016A00013407A68526A9201934211D1FB6803F4A5
:1016B00040327B689B6A5B08013B1B049A4207D15E
:1016C000FB6803F070627B68DB6A1B069A4201D0FC
:1016D000012300E0002318461837BD4680BD00BF37
:1016E0000038024080B584B000AF786039607B6814
:1016F000002B01D10123CCE0684B1B6803F00703EA
:101700003A689A420CD9654B3A68D2B21A70634B68
:101710001B6803F007033A689A4201D00123B8E03E
:101720007B681B6803F00203002B20D07B681B68DA
:1017300003F00403002B05D0594B9B68584A43F42F
:10174000E05393607B681B6803F00803002B05D00F
:10175000534B9B68524A43F460439360504B9B68E1
:1017600023F0F0027B689B684D4913438B607B68D4
:101770001B6803F00103002B44D07B685B68012BDE
:1017800007D1474B1B6803F40033002B19D1012309
:101790007FE07B685B68022B03D07B685B68032B70
:1017A00007D13F4B1B6803F00073002B09D10123C5
:1017B0006FE03B4B1B6803F00203002B01D10123B8
:1017C00067E0374B9B6823F003027B685B68344912
:1017D00013438B60FFF750FAF8600AE0FFF74CFA0A
:1017E0000246FB68D31A41F28832934201D903239F
:1017F0004FE02B4B9B6803F00C027B685B689B00FF
:101800009A42EBD1254B1B6803F007033A689A42D2
:101810000CD2224B3A68D2B21A70204B1B6803F0EC
:1018200007033A689A4201D0012332E07B681B68C3
:1018300003F00403002B08D0194B9B6823F4E052FB
:101840007B68DB68164913438B607B681B6803F079
:101850000803002B09D0124B9B6823F460427B687D
:101860001B69DB000E4913438B6000F021F8024630
:101870000B4B9B681B0903F00F030A49CB5C22FA50
:1018800003F3094A1360094B1B681846FFF7AAF8CF
:10189000002318461037BD4680BD00BF003C024003
:1018A000003802401C5900080000002004000020FD
:1018B0002DE9B04F94B000AF00237B640023FB649C
:1018C00000233B640023BB64794B9B6803F00C034B
:1018D000082B0DD0082B00F2E180002B02D0042B46
:1018E00003D0DBE0734BBB64DBE0734BBB64D8E03D
:1018F0006F4B5B6803F03F037B646D4B5B6803F4E5
:101900008003002B63D06A4B5B689B090022BB639A
:10191000FA63BB6BC3F308033B6300237B63D7E924
:101920000C4522462B464FF000004FF000015901B4
:1019300041EAD261500102460B462146511A3961F3
:10194000294663EB01037B614FF000024FF0000377
:10195000D7E904AB59468B01514643EA916351469E
:101960008A015146B2EB0108594663EB01094FF079
:1019700000024FF000034FEAC90343EA58734FEAED
:10198000C80290469946234618EB0303BB602B46DA
:1019900049EB0303FB604FF000024FF00003D7E96F
:1019A000024529464B02214643EAD15321464A02C9
:1019B000104619467B6C0022BB62FA62D7E90A2303
:1019C000FEF75EFC02460B461346FB6458E0384BBC
:1019D0005B689B09002218461146C0F308033B626E
:1019E00000237B62D7E9088942464B464FF000004E
:1019F0004FF00001590141EAD261500102460B4605
:101A00004146B2EB010A494663EB010B4FF000027D
:101A10004FF000034FEA8B1343EA9A634FEA8A12AE
:101A2000B2EB0A0463EB0B054FF000024FF000032A
:101A3000EB0043EA5473E20014461D464346E318A4
:101A40003B604B4645EB03037B604FF000024FF0D9
:101A50000003D7E9004529468B02214643EA91530A
:101A600021468A02104619467B6C0022BB61FA614E
:101A7000D7E90623FEF704FC02460B461346FB6437
:101A80000B4B5B681B0C03F0030301335B003B64EF
:101A9000FA6C3B6CB2FBF3F3BB6402E0054BBB6436
:101AA00000BFBB6C18465037BD46BDE8B08F00BFC5
:101AB000003802400024F40000127A0080B400AF25
:101AC000034B1B681846BD465DF8047B704700BF9A
:101AD0000000002080B500AFFFF7F0FF0246054B85
:101AE0009B689B0A03F007030349CB5C22FA03F3CC
:101AF000184680BD003802402C59000880B500AF60
:101B0000FFF7DCFF0246054B9B685B0B03F0070306
:101B10000349CB5C22FA03F3184680BD003802402B
:101B20002C59000880B483B000AF786039607B68BE
:101B30000F221A60124B9B6803F003027B685A6005
:101B40000F4B9B6803F0F0027B689A600C4B9B681C
:101B500003F4E0527B68DA60094B9B68DB0803F40E
:101B6000E0527B681A61074B1B6803F007023B6871
:101B70001A6000BF0C37BD465DF8047B704700BF9C
:101B800000380240003C024080B582B000AF78606F
:101B90007B68002B01D1012341E07B6893F83D3045
:101BA000DBB2002B06D17B68002283F83C207868EA
:101BB00000F039F87B68022283F83D207B681A68C0
:101BC0007B6804331946104600F0C0F97B68012297
:101BD00083F846207B68012283F83E207B6801223F
:101BE00083F83F207B68012283F840207B68012234
:101BF00083F841207B68012283F842207B68012220
:101C000083F843207B68012283F844207B6801220B
:101C100083F845207B68012283F83D200023184685
:101C20000837BD4680BD80B483B000AF786000BF88
:101C30000C37BD465DF8047B7047000080B485B06A
:101C400000AF78607B6893F83D30DBB2012B01D0A8
:101C500001234EE07B68022283F83D207B681B68ED
:101C6000DA687B681B6842F00102DA607B681B68F7
:101C7000234A934222D07B681B68B3F1804F1DD06A
:101C80007B681B681F4A934218D07B681B681E4AFA
:101C9000934213D07B681B681C4A93420ED07B682A
:101CA0001B681B4A934209D07B681B68194A934200
:101CB00004D07B681B68184A934211D17B681B686B
:101CC0009B6803F00703FB60FB68062B10D07B6862
:101CD0001B681A687B681B6842F001021A6007E003
:101CE0007B681B681A687B681B6842F001021A60F7
:101CF000002318461437BD465DF8047B704700BFCB
:101D0000000001400004004000080040000C0040BA
:101D100000040140004001400018004080B584B03C
:101D200000AF78607B681B68DB68FB607B681B68C2
:101D30001B69BB60BB6803F00203002B20D0FB686B
:101D400003F00203002B1BD07B681B686FF00202BC
:101D50001A617B6801221A777B681B689B6903F014
:101D60000303002B03D0786800F0D2F805E0786810
:101D700000F0C4F8786800F0D5F87B6800221A7784
:101D8000BB6803F00403002B20D0FB6803F00403BE
:101D9000002B1BD07B681B686FF004021A617B6804
:101DA00002221A777B681B689B6903F44073002B3F
:101DB00003D0786800F0ACF805E0786800F09EF891
:101DC000786800F0AFF87B6800221A77BB6803F0F0
:101DD0000803002B20D0FB6803F00803002B1BD066
:101DE0007B681B686FF008021A617B6804221A770F
:101DF0007B681B68DB6903F00303002B03D0786862
:101E000000F086F805E0786800F078F8786800F06F
:101E100089F87B6800221A77BB6803F01003002B57
:101E200020D0FB6803F01003002B1BD07B681B68DD
:101E30006FF010021A617B6808221A777B681B68B2
:101E4000DB6903F44073002B03D0786800F060F87E
:101E500005E0786800F052F8786800F063F87B6875
:101E600000221A77BB6803F00103002B0CD0FB683B
:101E700003F00103002B07D07B681B686FF00102A1
:101E80001A617868FEF726FDBB6803F08003002B1B
:101E90000CD0FB6803F08003002B07D07B681B6825
:101EA0006FF080021A61786800F006F9BB6803F0F1
:101EB0004003002B0CD0FB6803F04003002B07D03D
:101EC0007B681B686FF040021A61786800F034F894
:101ED000BB6803F02003002B0CD0FB6803F0200349
:101EE000002B07D07B681B686FF020021A617868AE
:101EF00000F0D8F800BF1037BD4680BD80B483B075
:101F000000AF786000BF0C37BD465DF8047B7047BA
:101F100080B483B000AF786000BF0C37BD465DF879
:101F2000047B704780B483B000AF786000BF0C378B
:101F3000BD465DF8047B704780B483B000AF786025
:101F400000BF0C37BD465DF8047B704780B485B098
:101F500000AF786039607B681B68FB607B68464A2D
:101F6000934213D07B68B3F1804F0FD07B68434A14
:101F700093420BD07B68424A934207D07B68414A28
:101F8000934203D07B68404A934208D1FB6823F018
:101F90007003FB603B685B68FA681343FB607B6817
:101FA000354A93422BD07B68B3F1804F27D07B68B2
:101FB000324A934223D07B68314A93421FD07B68D8
:101FC000304A93421BD07B682F4A934217D07B68DC
:101FD0002E4A934213D07B682D4A93420FD07B68E0
:101FE0002C4A93420BD07B682B4A934207D07B68E4
:101FF0002A4A934203D07B68294A934208D1FB685E
:1020000023F44073FB603B68DB68FA681343FB60B2
:10201000FB6823F080023B685B691343FB607B68CD
:10202000FA681A603B689A687B68DA623B681A68EB
:102030007B689A627B68104A934203D07B68124A9D
:10204000934203D13B681A697B681A637B6801225B
:102050005A617B681B6903F00103012B05D17B6882
:102060001B6923F001027B681A6100BF1437BD466B
:102070005DF8047B704700BF000001400004004091
:1020800000080040000C00400004014000400140F6
:10209000004401400048014000180040001C00407E
:1020A0000020004080B483B000AF786000BF0C37E0
:1020B000BD465DF8047B704780B483B000AF7860A4
:1020C00000BF0C37BD465DF8047B704780B582B019
:1020D00000AF78607B68002B01D1012342E07B6870
:1020E00093F84130DBB2002B06D17B68002283F8E5
:1020F00040207868FEF72EFC7B68242283F841207C
:102100007B681B68DA687B681B6822F40052DA601F
:10211000786800F073F97B681B681A697B681B6834
:1021200022F490421A617B681B685A697B681B68BD
:1021300022F02A025A617B681B68DA687B681B6898
:1021400042F40052DA607B6800225A647B682022E5
:1021500083F841207B68202283F842207B6800229C
:102160005A63002318460837BD4680BD80B58AB043
:1021700002AFF860B9603B601346FB8000237B61CF
:10218000FB6893F84130DBB2202B75D1BB68002B84
:1021900002D0FB88002B01D101236EE0FB680022F6
:1021A0005A64FB68212283F84120FEF765FD7861BF
:1021B000FB68FA889A84FB68FA88DA84FB689B6873
:1021C000B3F5805F08D1FB681B69002B04D10023A5
:1021D000FB61BB68BB6103E0BB68FB610023BB61C3
:1021E0002EE03B6800937B6900228021F86800F0B4
:1021F00048F80346002B05D0FB68202283F84120D5
:1022000003233AE0FB69002B0BD1BB691B881A46FC
:10221000FB681B68C2F308025A60BB690233BB61EA
:1022200007E0FB691A78FB681B685A60FB69013399
:10223000FB61FB68DB8C9BB2013B9AB2FB68DA84E2
:10224000FB68DB8C9BB2002BCBD13B6800937B6996
:1022500000224021F86800F014F80346002B05D056
:10226000FB68202283F84120032306E0FB6820223C
:1022700083F84120002300E0022318462037BD46A2
:1022800080BD80B586B000AFF860B9603B60134692
:10229000FB713BE03B6AB3F1FF3F37D0FEF7ECFC4C
:1022A00002463B68D31A3A6A9A4202D33B6A002B31
:1022B00001D103233AE0FB681B68DB6803F00403E9
:1022C000002B23D0BB68802B20D0BB68402B1DD0B7
:1022D000FB681B681B6803F00803082B16D100235A
:1022E0007B61FB681B681B687B61FB681B685B6824
:1022F0007B617B69F86800F01DF8FB6808225A646E
:10230000FB68002283F8402001230FE0FB681B6874
:102310001A68BB681340BA689A420CBF01230023B5
:10232000DBB21A46FB799A42B4D00023184618371C
:10233000BD4680BD80B495B000AF78607B681B68F7
:102340000C337B637B6B53E8003F3B633B6B23F4B5
:102350009073FB647B681B680C33FA6C3A64FB6314
:10236000F96B3A6C41E80023BB63BB6B002BE5D1F2
:102370007B681B6814333B623B6A53E8003FFB6198
:10238000FB6923F00103BB647B681B681433BA6CE0
:10239000FA62BB62B96AFA6A41E800237B627B6A2F
:1023A000002BE5D17B681B6B012B19D17B681B6867
:1023B0000C33FB60FB6853E8003FBB60BB6823F055
:1023C00010037B647B681B680C337A6CBA617B6199
:1023D0007969BA6941E800233B613B69002BE5D18B
:1023E0007B68202283F842207B6800221A6300BFAA
:1023F0005437BD465DF8047B704700002DE9B04FAF
:10240000C0B000AFC7F8F400D7F8F4301B681B6900
:1024100023F44050D7F8F430D968D7F8F4301A686C
:1024200040EA01031361D7F8F4309A68D7F8F43022
:102430001B691A43D7F8F4305B691A43D7F8F430B4
:10244000DB691343C7F8F830D7F8F4301B68DB6852
:1024500023F4164121F00C01D7F8F4301A68D7F8AC
:10246000F8300B43D360D7F8F4301B685B6923F472
:102470004070D7F8F4309969D7F8F4301A6840EA18
:1024800001035361D7F8F4301A688F4B9A4205D094
:10249000D7F8F4301A688D4B9A4204D1FFF72EFB1F
:1024A000C7F8FC0003E0FFF715FBC7F8FC00D7F8FE
:1024B000F430DB69B3F5004F40F00C81D7F8FC3005
:1024C0000022C7F8E830C7F8EC20D7E93A452246A1
:1024D0002B469118B9655B41FB65D7E91623214668
:1024E00012EB0108294643EB01094FF000024FF0BF
:1024F00000034FEAC90343EA58734FEAC802904603
:102500009946234618EB0303C7F8E0302B4649EB06
:102510000303C7F8E430D7F8F4305B680022C7F84B
:10252000D830C7F8DC20D7E936120B46DB183B65FC
:10253000134642EB03037B65D7E91423D7E938013F
:10254000FDF79EFE02460B46614BA3FB02235B098F
:102550001C01D7F8FC300022C7F8D030C7F8D420CF
:10256000D7E9348942464B469118B9645B41FB6414
:10257000D7E91223414612EB010A494643EB010B0E
:102580004FF000024FF000034FEACB0343EA5A73C7
:102590004FEACA0292469B4643461AEB0303C7F82A
:1025A000C8304B464BEB0303C7F8CC30D7F8F430B8
:1025B0005B680022C7F8C030C7F8C420D7E93012E2
:1025C0000B46DB183B64134642EB03037B64D7E9FD
:1025D0001023D7E93201FDF753FE02460B461146A0
:1025E0003B4BA3FB01235B09642202FB03F3CB1AE1
:1025F000DB0003F13202364BA3FB02235B095B00D5
:1026000003F4F8731C44D7F8FC300022C7F8B83044
:10261000C7F8BC20D7E92E8942464B469118B963CA
:102620005B41FB63D7E90E234146511839634946A4
:102630004B417B634FF000024FF00003D7E90CAB36
:102640005946CB00514643EA51735146CA001046E1
:102650001946034642469B18C7F8B0304B460A4617
:1026600042EB0303C7F8B430D7F8F4305B680022BC
:10267000C7F8A830C7F8AC20D7E92A120B46DB18F8
:10268000BB62134642EB0303FB62D7E90A23D7E997
:102690002C01FDF7F5FD02460B460D4BA3FB021383
:1026A0005B09642101FB03F3D31ADB003233084AD0
:1026B000A2FB03235B0903F00702D7F8F4301B6881
:1026C00022449A6006E100BF00100140001401405E
:1026D0001F85EB51D7F8FC300022C7F8A030C7F8AF
:1026E000A420D7E9288942464B46911839625B41BC
:1026F0007B62D7E9082341465418494643EB01055C
:102700004FF000024FF00003EB0043EA5473E20085
:1027100014461D464346E318C7F898304B4645EB30
:102720000303C7F89C30D7F8F4305B680022C7F881
:102730009030C7F894204FF000024FF00003D7E923
:10274000244529468B00214643EA917321468A009D
:10275000D7E92601FDF794FD02460B46604BA3FB2B
:1027600002235B091C01D7F8FC300022C7F888302F
:10277000C7F88C20D7E9228942464B469118B961A7
:102780005B41FB61D7E9062341465118396149464F
:102790004B417B614FF000024FF00003D7E904ABDF
:1027A0005946CB00514643EA51735146CA00104680
:1027B0001946034642469B18C7F880304B460A46E6
:1027C00042EB0303C7F88430D7F8F4305B6800228B
:1027D000BB67FA674FF000024FF00003D7E91E898C
:1027E00049468B00414643EA917341468A00D7E946
:1027F0002001FDF745FD02460B461146384BA3FB71
:1028000001235B09642202FB03F3CB1A1B01323361
:10281000334AA2FB03235B0903F0F0031C44D7F8FF
:10282000FC3000223B677A67D7E91C8942464B4659
:102830009118B9605B41FB60D7E90223414651180A
:10284000396049464B417B604FF000024FF0000376
:10285000D7E900AB5946CB00514643EA5173514684
:10286000CA0010461946034642469B18BB664B46B3
:102870000A4642EB0303FB66D7F8F4305B6800229C
:102880003B667A664FF000024FF00003D7E91889E3
:1028900049468B00414643EA917341468A00D7E995
:1028A0001A01FDF7EDFC02460B460D4BA3FB02138C
:1028B0005B09642101FB03F3D31A1B013233084A7D
:1028C000A2FB03235B0903F00F02D7F8F4301B6867
:1028D00022449A6000BF07F58077BD46BDE8B08FFF
:1028E0001F85EB5180B483B000AF78607B6803F143
:1028F00008027B685A607B684FF0FF329A607B6801
:1029000003F108027B68DA607B6803F108027B68E8
:102910001A617B6800221A6000BF0C37BD465DF863
:10292000047B704780B483B000AF78607B6800227E
:102930001A6100BF0C37BD465DF8047B704780B458
:1029400085B000AF786039603B681B68BB60BB68CE
:10295000B3F1FF3F03D17B681B69FB600CE07B6830
:102960000833FB6002E0FB685B68FB60FB685B6848
:102970001B68BA689A42F6D2FB685A683B685A608C
:102980003B685B683A689A603B68FA689A60FB68E3
:102990003A685A603B687A681A617B681B685A1CFF
:1029A0007B681A6000BF1437BD465DF8047B704732
:1029B00080B485B000AF78607B681B69FB607B6882
:1029C0005B687A6892689A607B689B687A685268EC
:1029D0005A60FB685B687A689A4203D17B689A68A0
:1029E000FB685A607B6800221A61FB681B685A1EEC
:1029F000FB681A60FB681B6818461437BD465DF813
:102A0000047B704780B586B000AF786039600123E1
:102A10007B617B683B613B69002B0BD14FF050031E
:102A200083F31188BFF36F8FBFF34F8FFB6000BF3D
:102A300000BFFDE73B69002B5DD03B69DB6B002BE2
:102A400059D03B691A6C3B69DB6B0021A3FB022365
:102A5000002B00D001210B46002B4CD101F0EAFEE7
:102A60003B691A683B69DB6B3969096C01FB03F34D
:102A70001A443B699A603B6900229A633B691A6871
:102A80003B695A603B691A683B69DB6B013B3969FA
:102A9000096C01FB03F31A443B69DA603B69FF22CE
:102AA00083F844203B69FF2283F845203B68002BD4
:102AB00014D13B691B69002B1AD03B6910331846AF
:102AC00000F0EEFF0346002B12D0164B4FF0805261
:102AD0001A60BFF34F8FBFF36F8F09E03B6910336C
:102AE0001846FFF7FFFE3B6924331846FFF7FAFE4E
:102AF00001F0D2FE01E000237B617B69002B0BD14A
:102B00004FF0500383F31188BFF36F8FBFF34F8FE4
:102B1000BB6000BF00BFFDE77B6918461837BD46A4
:102B200080BD00BF04ED00E080B58AB002AFF86060
:102B3000B9601346FB710023FB61FB68002B2ED0AC
:102B40000021BA68FB68A3FB0223002B00D00121FF
:102B50000B46002B23D1FB68BA6802FB03F313F189
:102B6000510F1CD8FB68BA6802FB03F3BB61BB6959
:102B70005033184601F042FFF861FB69002B1DD06D
:102B8000FB697B617B6950337B61FA79FB69009358
:102B900013467A69B968F86800F015F80EE0FB6929
:102BA000002B0BD14FF0500383F31188BFF36F8FCD
:102BB000BFF34F8F3B6100BF00BFFDE7FB691846C5
:102BC0002037BD4680BD80B584B000AFF860B960E5
:102BD0007A60FB70BB68002B03D1BB69BA691A60CD
:102BE00002E0BB697A681A60BB69FA68DA63BB699C
:102BF000BA681A640121B869FFF704FFBB69FA7863
:102C000083F84C2000BF1037BD4680BD80B58CB026
:102C100000AFF860B9607A600023FB62FB68BB62BA
:102C2000BB6A002B0BD14FF0500383F31188BFF325
:102C30006F8FBFF34F8F3B6200BF00BFFDE7BB68E4
:102C4000002B03D1BB6A1B6C002B01D1012300E0D8
:102C50000023002B0BD14FF0500383F31188BFF3F7
:102C60006F8FBFF34F8FFB6100BF00BFFDE701F027
:102C70002DF90346002B02D17B68002B01D10123E3
:102C800000E00023002B0BD14FF0500383F3118899
:102C9000BFF36F8FBFF34F8FBB6100BF00BFFDE776
:102CA00001F0C8FDBB6A9B6B7B627B6A002B1FD067
:102CB000B968B86A00F08CF87B6A5A1EBB6A9A63DE
:102CC000BB6A1B69002B0FD0BB6A1033184600F09B
:102CD000E7FE0346002B07D03C4B4FF080521A60B2
:102CE000BFF34F8FBFF36F8F01F0D6FD012369E073
:102CF0007B68002B03D101F0CFFD002362E0FB6A6B
:102D0000002B06D107F11003184600F0A3FF0123A2
:102D1000FB6201F0C1FD00F0B9FB01F08BFDBB6A65
:102D200093F844305BB2B3F1FF3F03D1BB6A00229A
:102D300083F84420BB6A93F845305BB2B3F1FF3FA0
:102D400003D1BB6A002283F8452001F0A5FD3A1D9E
:102D500007F110031146184600F092FF0346002BBE
:102D600023D1B86A00F0ACF80346002B17D0BB6A39
:102D700024337A681146184600F026FEB86A00F03F
:102D80004DF800F091FB0346002B89D10F4B4FF01B
:102D900080521A60BFF34F8FBFF36F8F80E7B86A1E
:102DA00000F03CF800F080FB7AE7B86A00F036F8F3
:102DB00000F07AFBB86A00F083F80346002B3FF47A
:102DC0006FAF002318463037BD4680BD04ED00E0EC
:102DD00080B582B000AF786039607B681B6C002BD7
:102DE00018D07B68DA687B681B6C1A447B68DA60F1
:102DF0007B68DA687B689B689A4203D37B681A68B1
:102E00007B68DA607B68D9687B681B6C1A46386817
:102E100002F0CEF800BF0837BD4680BD80B584B053
:102E200000AF786001F006FD7B6893F84530FB73D6
:102E300011E07B685B6A002B12D07B682433184654
:102E400000F02EFE0346002B01D000F081FFFB7B3B
:102E5000013BDBB2FB7397F90F30002BE9DC00E09C
:102E600000BF7B68FF2283F8452001F015FD01F0CB
:102E7000E1FC7B6893F84430BB7311E07B681B690D
:102E8000002B12D07B681033184600F009FE034671
:102E9000002B01D000F05CFFBB7B013BDBB2BB73BE
:102EA00097F90E30002BE9DC00E000BF7B68FF22C1
:102EB00083F8442001F0F0FC00BF1037BD4680BD10
:102EC00080B584B000AF786001F0B4FC7B689B6B88
:102ED000002B02D10123FB6001E00023FB6001F025
:102EE000DBFCFB6818461037BD4680BD80B487B058
:102EF00000AF7860396000233B617B68002B0BD109
:102F00004FF0500383F31188BFF36F8FBFF34F8FE0
:102F1000FB6000BF00BFFDE73B68002B24D000230F
:102F20007B611EE0184A7B69DB0013445B687A68AA
:102F30009A4205D17B69DB00134A13443B6113E0DD
:102F40003B69002B0AD1104A7B6952F83330002BC1
:102F500004D17B69DB000C4A13443B617B6901337C
:102F60007B617B69072BDDD93B69002B05D03B6971
:102F70003A681A603B697A685A6000BF1C37BD46E0
:102F80005DF8047B704700BF3C01002080B586B02F
:102F900000AFF860B9607A60FB687B6101F04AFCC1
:102FA0007B6993F844305BB2B3F1FF3F03D17B6997
:102FB000002283F844207B6993F845305BB2B3F17B
:102FC000FF3F03D17B69002283F8452001F064FCB8
:102FD0007B699B6B002B06D17B6924337A68B968C7
:102FE000184600F017FD7869FFF718FF00BF183783
:102FF000BD4680BD80B58AB004AFF860B9607A6024
:103000003B607B689B00184601F0F8FC38613B6927
:10301000002B13D0582001F0F1FC78617B69002B64
:1030200008D058220021786901F08EFF7B693A6947
:103030001A6305E0386901F019FE01E000237B61A5
:103040007B69002B0DD0002303937B6902937B6A7D
:1030500001933B6A00933B687A68B968F86800F0AE
:1030600028F87B6918461837BD4680BD80B588B002
:1030700002AFF860B9607A603B607B6A01933B6A9B
:1030800000933B687A68B968F868FFF7B3FF386166
:103090003B69002B05D0386900F09CF801237B6167
:1030A00002E04FF0FF337B617B6918461837BD465D
:1030B00080BD80B588B000AFF860B9607A603B60D1
:1030C0003B6B186B7B689B001A46A52101F03CFF07
:1030D0003B6B1A6B7B6803F18043013B9B001344FD
:1030E000BB61BB6923F00703BB61BB6903F0070346
:1030F000002B0BD04FF0500383F31188BFF36F8F79
:10310000BFF34F8F7B6100BF00BFFDE7BB68002BA3
:103110001ED00023FB6112E0BA68FB6913441978E2
:103120003A6BFB69134434330A461A70BA68FB6978
:1031300013441B78002B06D0FB690133FB61FB694C
:10314000092BE9D900E000BF3B6B002283F83D204A
:10315000BB6A042B0BD94FF0500383F31188BFF3E4
:103160006F8FBFF34F8F3B6100BF00BFFDE7BB6AAE
:10317000042B01D90423BB623B6BBA6ADA623B6B56
:10318000BA6A9A643B6B04331846FFF7CBFB3B6B80
:1031900018331846FFF7C6FB3B6B3A6B1A61BB6AE4
:1031A000C3F105023B6B9A613B6B3A6B5A623A681A
:1031B000F968B86901F0BCF902463B6B1A60FB6A1A
:1031C000002B02D0FB6A3A6B1A6000BF2037BD4665
:1031D00080BD000080B584B000AF786001F02AFBAC
:1031E000414B1B680133404A1360404B1B68002B66
:1031F00009D13E4A7B6813603B4B1B68012B10D101
:1032000000F0CAFD0DE03A4B1B68002B09D1374B8B
:103210001B68DA6A7B68DB6A9A4202D8334A7B68A9
:103220001360344B1B680133324A1360314B1A6808
:103230007B681A647B68DB6A01229A402E4B1B680C
:1032400013432D4A13607B68DA6A2C4913469B00AE
:1032500013449B000B4404331B68FB607B68FA68D3
:103260009A60FB689A687B68DA60FB689B687A689A
:1032700004325A607B681A1DFB689A607B68DA6AC0
:1032800013469B0013449B001C4A1A447B685A61F6
:103290007B68DA6A194913469B0013449B000B4470
:1032A0001B687A68D26A591C144813469B00134461
:1032B0009B000344196001F0EFFA0D4B1B68002BD3
:1032C0000ED00A4B1B68DA6A7B68DB6A9A4207D227
:1032D0000B4B4FF080521A60BFF34F8FBFF36F8FCD
:1032E00000BF1037BD4680BD540200207C01002085
:1032F00060020020700200205C020020800100209B
:1033000004ED00E080B584B000AF78600023FB607E
:103310007B68002B18D000F0B9F8134B1B68012B09
:103320000BD04FF0500383F31188BFF36F8FBFF3BF
:103330004F8FBB6000BF00BFFDE70021786800F041
:10334000E3FD00F0B1F8F860FB68002B07D1074BF4
:103350004FF080521A60BFF34F8FBFF36F8F00BFE3
:103360001037BD4680BD00BF7C02002004ED00E0A8
:1033700080B58AB002AF0123FB6100233B610023CB
:103380007B6111E01C4A7B69134419783A1D7B6903
:1033900013440A461A703A1D7B6913441B78002BAC
:1033A00006D07B6901337B617B69092BEADD00E094
:1033B00000BF0023BB6115E0104B3B61BB699B0064
:1033C0000F4A1344391D01930023009300238222E6
:1033D0003869FFF74BFEF861FB69002B06D0BB692B
:1033E0000133BB61BB69002BE6DD00E000BFFB6978
:1033F00018462037BD4680BD04590008693D0008C5
:103400007802002080B584B000AFFFF7B1FFF8600C
:10341000FB68012B02D100F0F9FDF860FB68012B7D
:1034200016D14FF0500383F31188BFF36F8FBFF3B2
:103430004F8FBB6000BF114B4FF0FF321A60104B33
:1034400001221A600F4B00221A6001F003F90FE00D
:10345000FB68B3F1FF3F0BD14FF0500383F31188AA
:10346000BFF36F8FBFF34F8F7B6000BF00BFFDE7DF
:10347000054B1B6800BF1037BD4680BD740200209D
:1034800060020020580200200C00002080B400AF31
:10349000044B1B680133034A136000BFBD465DF84F
:1034A000047B70477C02002080B588B000AF002309
:1034B000FB610023BB6101F0BDF900233B61754B4B
:1034C0001B68002B0BD14FF0500383F31188BFF31F
:1034D0006F8FBFF34F8F3B6000BF00BFFDE76D4BA9
:1034E0001B68013B6B4A13606A4B1B68002B40F062
:1034F000CA80694B1B68002B00F0C5808EE0674BCB
:10350000DB68DB68FB61FB699B6AFB60FB69DB696D
:10351000FA69126A9A60FB691B6AFA69D2695A6091
:10352000FB685A68FB6918339A4203D1FB691A6A2F
:10353000FB685A60FB6900229A62FB681B685A1E8E
:10354000FB681A60FB695B69BB60FB699B68FA6991
:10355000D2689A60FB69DB68FA6992685A60BB6856
:103560005A68FB6904339A4203D1FB69DA68BB6885
:103570005A60FB6900225A61BB681B685A1EBB680F
:103580001A60FB69DB6A01229A40454B1B681343B2
:10359000434A1360FB69DA6A424913469B001344AD
:1035A0009B000B4404331B687B60FB697A689A605C
:1035B0007B689A68FB69DA607B689B68FA69043209
:1035C0005A60FB691A1D7B689A60FB69DA6A1346C8
:1035D0009B0013449B00334A1A44FB695A61FB6900
:1035E000DA6A304913469B0013449B000B441B6866
:1035F000FA69D26A591C2B4813469B0013449B005E
:1036000003441960FB69DA6A274B1B68DB6A9A423C
:1036100004D9264A3B69012142F823101F4B1B683D
:10362000002B7FF46CAFFB69002B01D000F032FC63
:103630001F4B1B687B617B69002B12D000F04CF89C
:103640000346002B04D0194A3B69012142F823109C
:103650007B69013B7B617B69002BEFD1144B00221E
:103660001A60124A3B6952F82330002B0BD0012319
:10367000BB610D4B1B680F4B4FF080521A60BFF3BC
:103680004F8FBFF36F8F01F007F9BB6918462037E2
:10369000BD4680BD7C0200205402002014020020A0
:1036A0005C020020800100207C01002068020020D4
:1036B0006402002004ED00E080B483B000AF054B4D
:1036C0001B687B607B6818460C37BD465DF8047B41
:1036D000704700BF5802002080B58AB000AF0023B9
:1036E0007B627F4B1B68002B40F0EF807D4B1B689B
:1036F00001333B627B4A3B6A13603B6A002B21D15A
:10370000794B1B681B68002B0BD04FF0500383F3E1
:103710001188BFF36F8FBFF34F8F7B6000BF00BF77
:10372000FDE7714B1B68FB61704B1B686E4A1360B1
:103730006E4AFB6913606E4B1B6801336C4A136061
:1037400000F0A8FB6B4B1B683A6A9A42C0F0A88055
:10375000654B1B681B68002B04D1664B4FF0FF3292
:103760001A609DE0604B1B68DB68DB68BB61BB696E
:103770005B687B613A6A7B699A4203D25D4A7B69E6
:1037800013608DE0BB695B693B61BB699B68BA698B
:10379000D2689A60BB69DB68BA6992685A603B6913
:1037A0005A68BB6904339A4203D1BB69DA683B6942
:1037B0005A60BB6900225A613B691B685A1E3B690B
:1037C0001A60BB699B6A002B1ED0BB699B6AFB60B9
:1037D000BB69DB69BA69126A9A60BB691B6ABA691C
:1037E000D2695A60FB685A68BB6918339A4203D1A0
:1037F000BB691A6AFB685A60BB6900229A62FB685F
:103800001B685A1EFB681A60BB69DB6A01229A407A
:10381000394B1B681343384A1360BB69DA6A37496E
:1038200013469B0013449B000B4404331B68BB608E
:10383000BB69BA689A60BB689A68BB69DA60BB68A2
:103840009B68BA6904325A60BB691A1DBB689A60EA
:10385000BB69DA6A13469B0013449B00274A1A444B
:10386000BB695A61BB69DA6A244913469B00134459
:103870009B000B441B68BA69D26A591C1F48134647
:103880009B0013449B0003441960BB69DA6A1C4B1C
:103890001B68DB6A9A427FF65BAF01237B6257E7C6
:1038A000174B1B68DA6A154913469B0013449B00AB
:1038B0000B441B68012B01D901237B62114B1B6850
:1038C000002B07D001237B6204E00F4B1B68013300
:1038D0000D4A13607B6A18462837BD4680BD00BF7D
:1038E0007C020020580200200C0200201002002060
:1038F0006C020020740200205C0200208001002085
:103900007C010020680200206402002080B487B09F
:1039100000AF284B1B68002B03D0274B01221A60F5
:1039200041E0254B00221A60244B1B68FB60FB68BA
:10393000B3FA83F3FB72FB7AC3F11F037B61204967
:103940007A6913469B0013449B000B441B68002BB1
:103950000BD14FF0500383F31188BFF36F8FBFF388
:103960004F8F7B6000BF00BFFDE77A6913469B0065
:1039700013449B00124A13443B613B695B685A68DD
:103980003B695A603B695A683B6908339A4203D1E4
:103990003B69DA683B695A603B695B68DB68094AE6
:1039A0001360084B1B6800BF1C37BD465DF8047BE5
:1039B000704700BF7C020020680200205C020020EB
:1039C000800100207C01002080B584B000AF7860C9
:1039D00039607B68002B0BD14FF0500383F31188C3
:1039E000BFF36F8FBFF34F8FFB6000BF00BFFDE7DA
:1039F000074B1B68183319467868FEF7A0FF0121B2
:103A0000386800F081FA00BF1037BD4680BD00BFA6
:103A10007C01002080B586B000AFF860B9607A60A4
:103A2000FB68002B0BD14FF0500383F31188BFF3D9
:103A30006F8FBFF34F8F3B6100BF00BFFDE7FB6897
:103A40005B687B61154B1B687A69DA61134B1B68F5
:103A50007A6992681A62114B1A687B699B681832FE
:103A60005A600E4B1B6803F118027B699A600B4B7E
:103A70001B68FA689A62FB681B685A1CFB681A602C
:103A80007B68002B02D04FF0FF33BB607968B868C9
:103A900000F03AFA00BF1837BD4680BD7C01002017
:103AA00080B48BB000AF78607B68DB68DB683B621A
:103AB0003B6A002B0BD14FF0500383F31188BFF307
:103AC0006F8FBFF34F8FFB6000BF00BFFDE73B6A06
:103AD0009B6AFB613B6ADB693A6A126A9A603B6ADD
:103AE0001B6A3A6AD2695A60FB695A683B6A1833A2
:103AF0009A4203D13B6A1A6AFB695A603B6A002208
:103B00009A62FB691B685A1EFB691A604B4B1B6863
:103B1000002B60D13B6A5B697B613B6A9B683A6AB8
:103B2000D2689A603B6ADB683A6A92685A607B693D
:103B30005A683B6A04339A4203D13B6ADA687B696C
:103B40005A603B6A00225A617B691B685A1E7B6976
:103B50001A603B6ADB6A01229A40394B1B681343A7
:103B6000374A13603B6ADA6A364913469B001344AE
:103B70009B000B4404331B683B613B6A3A699A60C3
:103B80003B699A683B6ADA603B699B683A6A04322F
:103B90005A603B6A1A1D3B699A603B6ADA6A1346AF
:103BA0009B0013449B00274A1A443B6A5A613B6AB4
:103BB000DA6A244913469B0013449B000B441B689C
:103BC0003A6AD26A591C1F4813469B0013449B0053
:103BD000034419601BE01C4B5B68BB613B6ABA691C
:103BE000DA61BB699A683B6A1A62BB699B683A6A88
:103BF00018325A603B6A03F11802BB699A603B6A4B
:103C0000114A9A62104B1B6801330F4A13603B6ADA
:103C1000DA6A0E4B1B68DB6A9A4205D901237B6284
:103C20000B4B01221A6001E000237B627B6A18467D
:103C30002C37BD465DF8047B704700BF7C02002036
:103C40005C02002080010020140200207C01002082
:103C50006802002080B483B000AF7860064B1A6819
:103C60007B681A60054B1A687B685A6000BF0C3786
:103C7000BD465DF8047B70476C02002058020020AE
:103C800080B588B000AF786039607B68002B0BD1BD
:103C90004FF0500383F31188BFF36F8FBFF34F8F43
:103CA0003B6100BF00BFFDE73B68002B0BD14FF02D
:103CB000500383F31188BFF36F8FBFF34F8FFB6007
:103CC00000BF00BFFDE700F0B5FD1F4B1B68BB61E7
:103CD0007B685B68BA69D31A7B613B681B68B3F188
:103CE000FF3F02D10023FB6126E07B681A68174B77
:103CF0001B689A420AD07B685B68BA699A4205D30E
:103D00000123FB613B6800221A6015E03B681B68D9
:103D10007A699A420BD23B681A687B69D21A3B686F
:103D20001A607868FFF796FF0023FB6104E03B68A8
:103D300000221A600123FB6100F0AEFDFB6918460A
:103D40002037BD4680BD00BF580200206C02002015
:103D500080B400AF034B01221A6000BFBD465DF87E
:103D6000047B70476802002080B582B000AF7860A5
:103D700000F052F8064B1B68012BF9D9054B4FF0A8
:103D800080521A60BFF34F8FBFF36F8FF0E700BF11
:103D90008001002004ED00E080B582B000AF002378
:103DA0007B600CE07A6813469B0013449B00124A28
:103DB00013441846FEF796FD7B6801337B607B68F1
:103DC000042BEFD90D48FEF78DFD0D48FEF78AFD57
:103DD0000C48FEF787FD0C48FEF784FD0B48FEF704
:103DE00081FD0B4B054A1A600A4B054A1A6000BF59
:103DF0000837BD4680BD00BF80010020E4010020DF
:103E0000F8010020140200202802002040020020B7
:103E10000C0200201002002080B582B000AF19E033
:103E200000F008FD104BDB68DB687B607B680433C7
:103E30001846FEF7BDFD0D4B1B68013B0B4A136096
:103E40000B4B1B68013B0A4A136000F025FD7868A4
:103E500000F010F8064B1B68002BE1D100BF00BF3B
:103E60000837BD4680BD00BF280200205402002054
:103E70003C02002080B582B000AF78607B681B6B8D
:103E8000184600F0F3FE786800F0F0FE00BF083737
:103E9000BD4680BD80B400AF0A4B1B681B68002B79
:103EA00004D1094B4FF0FF321A6005E0054B1B6847
:103EB000DB681B68044A136000BFBD465DF8047BE5
:103EC000704700BF0C0200207402002080B483B051
:103ED00000AF0B4B1B68002B02D101237B6008E075
:103EE000084B1B68002B02D102237B6001E00023FA
:103EF0007B607B6818460C37BD465DF8047B7047D5
:103F0000600200207C02002080B588B000AF78609D
:103F10003960374B1B68FB61364B1B68BB61364B06
:103F20001B687B61354B1B6804331846FEF740FD68
:103F30000346002B0BD1314B1B68DB6A012202FACE
:103F400003F3DA432E4B1B6813402D4A13607B6842
:103F5000B3F1FF3F24D13B68002B21D0294B5B6894
:103F60003B61264B1B683A699A60244B1B683A698F
:103F70009268DA60214B1A683B699B6804325A6088
:103F80001E4B1B681A1D3B699A601C4B1B681D4A1F
:103F90005A611C4B1B6801331A4A136000BF22E0B0
:103FA000FA697B681344FB60144B1B68FA685A601B
:103FB000FA68FB699A4207D2104B1B680433194612
:103FC0007869FEF7BCFC0EE00C4B1B680433194605
:103FD000B869FEF7B4FC0C4B1B68FA689A4202D22F
:103FE000094AFB68136000BF2037BD4680BD00BF93
:103FF000580200200C020020100200207C0100204A
:104000005C020020400200207402002080B584B0D1
:1040100002AF00237B6000F055FA124B1B68002BA7
:104020000BD0114B01930223009300234FF48272B3
:104030000E490F48FFF71AF878607B68002B0BD108
:104040004FF0500383F31188BFF36F8FBFF34F8F8F
:104050003B6000BF00BFFDE77B6818460837BD46E0
:1040600080BD00BFB0020020B40200200C5900083F
:104070001941000880B584B000AFF860B9607A607B
:1040800008E0FB689B69BA681344BB60FB681B6A65
:10409000F8689847FB689A69BB68D118BB687A686A
:1040A000F86800F0DFF80346002BEAD100BF00BF3C
:1040B0001037BD4680BD000080B584B000AF786089
:1040C0003960144B1B68DB68DB68FB60FB680433FA
:1040D0001846FEF76DFCFB6893F8283003F00403E4
:1040E000002B05D03A687968F868FFF7C3FF08E04D
:1040F000FB6893F8283023F00103DAB2FB6883F8F9
:104100002820FB681B6AF868984700BF1037BD4637
:1041100080BD00BFA802002080B584B000AF7860E9
:1041200007F10803184600F059F8F860BB68194613
:10413000F86800F005F800F0D7F800BFF0E70000DD
:1041400080B584B000AF78603960FFF79FF907F160
:104150000803184600F066F8F860BB68002B30D101
:104160003B68002B0AD17A68FB689A4206D8FFF7B1
:104170009BF9F9687868FFF79FFF24E03B68002B04
:1041800008D0134B1B681B68002B01D1012300E0F2
:1041900000233B600F4B18687A68FB68D31A3A68B3
:1041A0001946FEF7F3FEFFF77FF90346002B0AD10D
:1041B000094B4FF080521A60BFF34F8FBFF36F8FE0
:1041C00001E0FFF771F900BF1037BD4680BD00BFA9
:1041D000AC020020B002002004ED00E080B485B005
:1041E00000AF78600E4B1B681B68002B01D10122C9
:1041F00000E000227B681A607B681B68002B05D1F9
:10420000074B1B68DB681B68FB6001E00023FB6059
:10421000FB6818461437BD465DF8047B704700BF45
:10422000A802002080B584B000AF7860FFF744FAA0
:10423000F8600B4B1B68FA689A4205D200F01CF933
:104240007B6801221A6002E07B6800221A60044A3F
:10425000FB681360FB6818461037BD4680BD00BF81
:10426000B802002080B586B000AFF860B9607A600F
:104270003B6000237B61FB68BA685A60FB68FA68A0
:104280001A61BA687B689A4212D87A683B68D21A77
:10429000FB689B699A4202D301237B611BE0104BB0
:1042A0001A68FB68043319461046FEF748FB12E013
:1042B0007A683B689A4206D2BA683B689A4202D34F
:1042C00001237B6107E0074B1A68FB68043319463A
:1042D0001046FEF734FB7B6918461837BD4680BD93
:1042E000AC020020A802002080B588B000AF07F122
:1042F000080300221A605A609A60A9E0BB68002B8C
:10430000C0F2A6803B69FB61FB695B69002B04D0AE
:10431000FB6904331846FEF74BFB3B1D1846FFF7BD
:1043200081FFB861BB68013B082B00F28E8001A2BF
:1043300052F823F05943000859430008C1430008CC
:10434000D543000821440008594300085943000898
:10435000C1430008D5430008FB6993F8283043F0B7
:104360000103DAB2FB6983F82820FA68FB699B69CC
:10437000D118FB68BA69F869FFF774FF0346002B90
:1043800065D0FB6993F8283003F00403002B09D0B3
:10439000FA68FB699B691344BA691946F869FFF723
:1043A00069FE08E0FB6993F8283023F00103DAB2D4
:1043B000FB6983F82820FB691B6AF869984746E087
:1043C000FB6993F8283023F00103DAB2FB6983F824
:1043D00028203DE0FB6993F8283043F00103DAB26E
:1043E000FB6983F82820FA68FB699A61FB699B697D
:1043F000002B0BD14FF0500383F31188BFF36F8F65
:10440000BFF34F8F7B6100BF00BFFDE7FB699A6977
:10441000BB69D118BB69BA69F869FFF723FF17E0D8
:10442000FB6993F8283003F00203002B03D1F869ED
:1044300000F01CFC0CE0FB6993F8283023F001032A
:10444000DAB2FB6983F8282002E000BF00E000BF79
:10445000084B1B6807F1080100221846FEF7D6FB3F
:104460000346002B7FF44AAF00BF00BF2037BD4694
:1044700080BD00BFB002002080B582B000AF09E06F
:104480000E4B1B68DB681B683B604FF0FF313868E0
:10449000FFF712FE094B1B681B68002BF0D1074B7E
:1044A0001B687B60064B1B68044A1360044A7B68E8
:1044B000136000BF0837BD4680BD00BFA8020020C2
:1044C000AC02002080B500AF00F0B4F9124B1B68BD
:1044D000002B1DD11148FEF705FA1148FEF702FA2C
:1044E000104B0E4A1A60104B0D4A1A6000220C2124
:1044F0000A20FEF719FB0346074A1360064B1B68A8
:10450000002B05D0044B1B6808491846FEF7EEFC4B
:1045100000F0C2F900BF80BDB00200208002002080
:1045200094020020A8020020AC02002014590008C8
:1045300080B485B000AFF860B9607A60FB68043B76
:10454000FB60FB684FF080721A60FB68043BFB6005
:10455000BB6823F00102FB681A60FB68043BFB6048
:104560000C4AFB681A60FB68143BFB607A68FB68C6
:104570001A60FB68043BFB60FB686FF002021A6084
:10458000FB68203BFB60FB6818461437BD465DF8AE
:10459000047B70479945000880B485B000AF0023C4
:1045A0007B60134B1B68B3F1FF3F0BD04FF0500300
:1045B00083F31188BFF36F8FBFF34F8FFB6000BF92
:1045C00000BFFDE74FF0500383F31188BFF36F8FF7
:1045D000BFF34F8FBB6000BF00BF7B68002BFCD0D8
:1045E00000BF00BF1437BD465DF8047B704700BFB5
:1045F000100000200000000000000000000000008B
:10460000074B19680868B0E8F04F80F30988BFF3DA
:104610006F8F4FF0000080F311887047AFF3008078
:104620007C01002000BF00BF08480068006880F3DC
:1046300008884FF0000080F3148862B661B6BFF3BB
:104640004F8FBFF36F8F00DF00BF000008ED00E069
:1046500000BF00BF80B58CB000AF694B1B68694AD2
:1046600093420BD14FF0500383F31188BFF36F8F48
:10467000BFF34F8F7B6200BF00BFFDE7604B1B683D
:10468000614A93420BD14FF0500383F31188BFF37B
:104690006F8FBFF34F8F3B6200BF00BFFDE75B4BE7
:1046A0001B68FB62FB6A2C331B68594A93420BD090
:1046B0004FF0500383F31188BFF36F8FBFF34F8F19
:1046C000FB6100BF00BFFDE7FB6A38331B68514A3E
:1046D00093420BD04FF0500383F31188BFF36F8FD9
:1046E000BFF34F8FBB6100BF00BFFDE70023BB607E
:1046F000494BBB62BB6A1B78DBB2FB73BB6AFF2210
:104700001A70BB6A1B78DBB2FB71FB79DBB203F07A
:104710005003DAB2414B1A70404B1B78002B0BD17F
:104720004FF0500383F31188BFF36F8FBFF34F8FA8
:104730007B6100BF00BFFDE7FB79DBB2DB4303F029
:104740005003002B13D04FF0500383F31188BFF3B5
:104750006F8FBFF34F8F3B6100BF00BFFDE7BB68AA
:104760000133BB60FB79DBB25B00DBB2FB71FB7931
:10477000DBB203F08003802BF1D0BB68082B03D1A0
:10478000274B00221A6004E0BB68C3F10703244AE8
:104790001360234B1B681B02214A1360204B1B68CC
:1047A00003F4E0631E4A1360FB7BDAB2BB6A1A7043
:1047B0001C4B1B681B4A43F47F031360194B1B6897
:1047C000184A43F07F431360174B00221A6000F031
:1047D000E5F8164B00221A6000F004F9144B1B6830
:1047E000134A43F040431360FFF71EFFFFF78EF8B4
:1047F000FFF7D2FE002318463037BD4680BD00BF0C
:1048000000ED00E071C20F4170C20F4108ED00E001
:1048100001460008F148000800E400E0BC02002066
:10482000C002002020ED00E01CED00E010000020A0
:1048300034EF00E080B483B000AF4FF0500383F357
:104840001188BFF36F8FBFF34F8F7B6000BF104B9A
:104850001B6801330E4A13600D4B1B68012B10D1EE
:104860000C4B1B68DBB2002B0BD04FF0500383F3D3
:104870001188BFF36F8FBFF34F8F3B6000BF00BF46
:10488000FDE700BF0C37BD465DF8047B704700BFF5
:104890001000002004ED00E080B483B000AF124BA4
:1048A0001B68002B0BD14FF0500383F31188BFF32B
:1048B0006F8FBFF34F8F7B6000BF00BFFDE70A4BD8
:1048C0001B68013B084A1360074B1B68002B05D18E
:1048D00000233B603B6883F3118800BF00BF0C37A7
:1048E000BD465DF8047B704710000020000000000A
:1048F000EFF30980BFF36F8F154B1A681EF0100F8E
:1049000008BF20ED108A20E9F04F10602DE9090062
:104910004FF0500080F31188BFF34F8FBFF36F8FBC
:10492000FEF7F4FF4FF0000080F3118809BC19680E
:104930000868B0E8F04F1EF0100F08BFB0EC108A06
:1049400080F30988BFF36F8F704700BFAFF300801B
:104950007C01002000BF00BF80B582B000AF4FF0E7
:10496000500383F31188BFF36F8FBFF34F8F7B60CA
:1049700000BFFEF7B1FE0346002B03D0064B4FF0FD
:1049800080521A6000233B603B6883F3118800BFAC
:1049900000BF0837BD4680BD04ED00E080B400AF25
:1049A0000B4B00221A600B4B00221A600A4B1B684B
:1049B0000A4AA2FB03239B09094A013B1360044BEB
:1049C00007221A6000BFBD465DF8047B704700BF38
:1049D00010E000E018E000E000000020D34D62107D
:1049E00014E000E0DFF80C00016841F470010160A0
:1049F0007047000088ED00E000BF00BF80B58EB0BA
:104A000000AF78600023FB620023BB627B68002B51
:104A100022D00823DB437A689A421BD808227B689D
:104A200013447B607B6803F00703002B14D07B6882
:104A300003F00703C3F108037B627B6ADB437A68F8
:104A40009A4204D87A687B6A13447B6004E00023AE
:104A50007B6001E000237B60FEF718FD7C4B1B6848
:104A6000002B01D100F07CF97B68002BC0F2D780CD
:104A70007B68002B00F0D380764B1B687A689A42E3
:104A800000F2CD80744B3B63734B1B687B637B6B85
:104A9000724A934205D37B6B714A934201D801233A
:104AA00000E00023002B29D14FF0500383F311883D
:104AB000BFF36F8FBFF34F8FFB6100BF00BFFDE7F8
:104AC0007B6B3B637B6B1B687B637B6B634A9342B3
:104AD00005D37B6B624A934201D8012300E0002397
:104AE000002B0BD14FF0500383F31188BFF36F8F6E
:104AF000BFF34F8FBB6100BF00BFFDE77B6B5B68FF
:104B00007A689A4203D97B6B1B68002BD8D1504B33
:104B10001B687A6B9A4200F082803B6B1B6808220C
:104B20001344FB62FB6A4D4A934205D3FB6A4C4A2D
:104B3000934201D8012300E00023002B0BD14FF05A
:104B4000500383F31188BFF36F8FBFF34F8F7B61E7
:104B500000BF00BFFDE77B6B1A683B6B1A607B6B85
:104B60005B687A689A420BD94FF0500383F311883F
:104B7000BFF36F8FBFF34F8F3B6100BF00BFFDE7F7
:104B80007B6B5A687B68D21A08235B009A4224D94F
:104B90007A6B7B6813443B623B6A03F00703002B8C
:104BA0000BD04FF0500383F31188BFF36F8FBFF327
:104BB0004F8FFB6000BF00BFFDE77B6B5A687B68CF
:104BC000D21A3B6A5A607B6B7A685A603B6B1A68F0
:104BD0003B6A1A603B6B3A6A1A601E4B1A687B6B21
:104BE0005B68D31A1B4A13601A4B1A681D4B1B686B
:104BF0009A4203D2174B1B681A4A13607B6B5B689F
:104C0000BB627B6B5B6843F000427B6B5A607B6BE3
:104C100000221A60144B1B680133134A1360FEF71D
:104C200043FCFB6A03F00703002B0BD04FF050034B
:104C300083F31188BFF36F8FBFF34F8FBB6000BF4B
:104C400000BFFDE7FB6A18463837BD4680BD00BF90
:104C5000CC2E0120D02E0120C42E0120C402002021
:104C6000C32E0120D42E0120D82E012080B588B07B
:104C700000AF78607B68FB617B68002B64D0082301
:104C80005B42FA691344FB61FB69BB61BB69304A53
:104C9000934205D3BB692F4A934201D8012300E018
:104CA0000023002B0BD14FF0500383F31188BFF387
:104CB0006F8FBFF34F8F7B6100BF00BFFDE7BB6904
:104CC0005B68002B0BDB4FF0500383F31188BFF3BD
:104CD0006F8FBFF34F8F3B6100BF00BFFDE7BB6924
:104CE0001B68002B0BD04FF0500383F31188BFF3E8
:104CF0006F8FBFF34F8FFB6000BF00BFFDE7BB6945
:104D00005B68DB0F03F00103DBB2002B1CD0BB6937
:104D10001B68002B18D1BB695B6823F00042BB699C
:104D20005A60FEF7B3FBBB695A680B4B1B68134410
:104D3000094A1360B86900F06DF8084B1B6801332D
:104D4000064A1360FEF7B0FB00BF2037BD4680BDAA
:104D5000C4020020C32E0120D02E0120DC2E012011
:104D600080B485B000AF4FF49633BB60244BFB603A
:104D7000FB6803F00703002B0CD0FB680733FB60D4
:104D8000FB6823F00703FB60BA68FB68D31A1C4A70
:104D90001344BB60FB681B4A13601A4B00225A6025
:104DA000FA68BB6813447B6008227B689B1A7B60AF
:104DB0007B6823F007037B607B68134A1360124B08
:104DC0001B6800225A60104B1B6800221A60FB68A7
:104DD0003B603B687A68D21A3B685A600A4B1A6893
:104DE0003B681A603B685B68084A13603B685B6815
:104DF000074A136000BF1437BD465DF8047B704757
:104E0000C4020020C42E0120CC2E0120D42E01206B
:104E1000D02E012080B487B000AF7860364B7B6124
:104E200002E07B691B687B617B691B687A689A4238
:104E3000F7D87B69304A934218D07B692F4A934256
:104E400005D37B692E4A934201D8012300E0002359
:104E5000002B0BD14FF0500383F31188BFF36F8FFA
:104E6000BFF34F8FFB6000BF00BFFDE77B693B6175
:104E70007B695B683A6913447A689A4208D17B6916
:104E80005A687B685B681A447B695A607B697B60FF
:104E90007B683B617B685B683A691A447B691B6885
:104EA0009A4218D17B691A68164B1B689A420DD03A
:104EB0007B685A687B691B685B681A447B685A6028
:104EC0007B691B681A687B681A6008E00D4B1A68DA
:104ED0007B681A6003E07B691A687B681A607A69EC
:104EE0007B689A4202D07B697A681A6000BF1C37DF
:104EF000BD465DF8047B7047C42E0120C40200202B
:104F0000C32E0120CC2E01200EB400B59CB01DABE9
:104F1000029006906FF000410948079104910949F9
:104F200053F8042B05910068019302A900F0A2F93F
:104F3000029B00221A701CB05DF804EB03B07047AE
:104F4000140000200802FFFF02440346934200D1F0
:104F5000704703F8011BF9E7014B1868704700BF61
:104F60001400002070B50D4D0D4C641BA4100026DC
:104F7000A64209D10B4D0C4C00F066FC641BA4103A
:104F80000026A64205D170BD55F8043B984701366E
:104F9000EEE755F8043B98470136F2E770590008F0
:104FA000705900087059000874590008704770471C
:104FB0000A44914200F1FF3300D1704710B511F857
:104FC000014B03F8014F9142F9D110BD38B50546A8
:104FD000002941D051F8043C0C1F002BB8BFE41845
:104FE00000F0E0F81D4A136833B963601460284686
:104FF000BDE8384000F0DCB8A34208D92068211889
:105000008B4201BF19685B6809182160EDE71A46F9
:105010005B680BB1A342FAD911685018A0420BD1BA
:1050200020680144501883421160E0D118685B6821
:10503000536008441060DAE702D90C232B60D6E7EE
:10504000206821188B4204BF19685B68636004BF45
:10505000091821605460CAE738BD00BF2430012020
:1050600070B50F4E0C463168054611B900F0A6FB2D
:1050700030602146284600F0A1FB431C03D14FF0CD
:10508000FF34204670BDC41C24F00304A042F8D0B5
:10509000211A284600F092FB0130F2D1EFE700BF61
:1050A000203001202DE9F843CD1C25F003050835FB
:1050B0000C2D38BF0C25002D064601DBA94204D972
:1050C0000C2333600020BDE8F883DFF8D48000F0C3
:1050D00069F8D8F800301C4644BB29463046FFF733
:1050E000BFFF431C044658D1D8F800402746002F84
:1050F00043D1002C4BD023683946304604EB0309DA
:1051000000F05CFB814542D121686D1A294630468A
:10511000FFF7A6FF01303AD023682B442360D8F86C
:1051200000305A6862BBC8F800700FE02268521B5A
:1051300020D40B2A17D96119A342256018BF5960E2
:10514000636808BFC8F8001062514B60304600F039
:105150002FF804F10B00231D20F00700C21A1CBF1A
:105160001B1AA350AFE76268A3420CBFC8F8002027
:105170005A60EBE723466468AEE73C467F68B6E7D3
:105180001A465B68A342FBD100235360DEE70C2381
:105190003360304600F00CF894E70560D6E700BFB6
:1051A000243001200148FFF701BF00BF1C3001205F
:1051B0000148FFF7FCBE00BF1C3001202DE9F0477D
:1051C0008E681F46BE420B6882460C4690462DD81C
:1051D000B1F90C2012F4906F26D06569096905EBCE
:1051E0004505A3EB010905EBD5757B1C4B446D1000
:1051F0009D4238BF1D46530527D52946FFF752FF6C
:10520000064660B321694A46FFF7D2FEA38923F41C
:10521000906343F08003A381266165614E44A5EB52
:1052200009052660A5603E46BE4200D93E4620687C
:105230003246414600F0A8FAA3689B1BA36023688E
:10524000334423600020BDE8F0872A4600F0C6FA08
:1052500006460028E0D121695046FFF7B7FE0C232F
:10526000CAF80030A38943F04003A3814FF0FF3018
:10527000E9E700002DE9F04F98468B891B069DB0A9
:1052800007460D46144610D50B6973B94021FFF748
:1052900009FF2860286130B90C233B604FF0FF30D4
:1052A0001DB0BDE8F08F40236B61002309932023DC
:1052B0008DF82930CDF80C803023DFF89C818DF8F3
:1052C0002A304FF0010923469A4613F8012B0AB100
:1052D000252AF9D1BAEB040B0BD05B4622462946AE
:1052E0003846FFF76BFF013000F0A780099A5A4457
:1052F00009929AF80030002B00F09F8000234FF0B5
:10530000FF32CDE905230AF1010A049307938DF8D2
:1053100053301A935446052214F8011B4E48FAF7ED
:105320005FFF049AD8B9D00644BF20238DF85330CC
:10533000110744BF2B238DF853309AF800302A2BE5
:1053400015D0079A544600204FF00A0C214611F858
:10535000013B303B092B4BD9B0B1079214E0A0EBD5
:10536000080309FA03F313430493A246D2E7039B0D
:10537000191D1B680391002BBBBF5B4242F0020268
:1053800007930793B8BF049223782E2B0AD1637832
:105390002A2B32D1039B1A1D1B68039243EAE37345
:1053A00002340593DFF8C0A0217803225046FAF7B3
:1053B00017FF38B1049BA0EB0A0040228240134340
:1053C0000134049314F8011B24488DF82810062298
:1053D000FAF706FF002836D0214B1BBB039B07338F
:1053E00023F0070308330393099B334409936AE7C7
:1053F0000CFB02320C460120A8E700230134059380
:1054000019464FF00A0C204610F8012B303A092AB1
:1054100003D9002BC6D00591C4E70CFB012104463B
:105420000123F0E703AB00932A460E4B04A938464C
:10543000AFF30080421C0646D6D1AB895B063FF530
:105440002DAF09982CE703AB00932A46054B04A91E
:10545000384600F079F8EDE7345900083E59000865
:1054600000000000BD5100083A5900082DE9F0473E
:10547000164698468A680B69DDF820909342B8BFBB
:105480001346336091F8432007460C460AB10133B6
:1054900033602368990642BF33680233336025685E
:1054A00015F0060506D104F1190AE36832689B1A63
:1054B000AB4226DC94F843302268003B18BF01233E
:1054C00092062BD404F1430241463846C8470130C6
:1054D0001ED02368226903F00603042B02BFE5688F
:1054E0003368ED1AA3680CBF25EAE57500259342E1
:1054F000C4BF9B1AED1800261A34B5421AD10020F9
:1055000008E00123524641463846C847013003D1DE
:105510004FF0FF30BDE8F0870135C6E7E1185A1CAF
:10552000302081F84300224494F8451082F843105B
:105530000233C7E70123224641463846C8470130B7
:10554000E6D00136D9E700002DE9FF470F7E0C9E1B
:10555000782F914680460C469A4601F1430207D8BF
:10556000622F0AD8002F00F0D280582F00F0B980A7
:1055700004F1420684F842703AE0A7F16303152B68
:10558000F6D801A151F823F0E1550008F5550008BF
:1055900071550008715500087155000871550008D3
:1055A000F55500087155000871550008715500083F
:1055B00071550008F55600081F560008AF56000840
:1055C00071550008715500081757000871550008FB
:1055D0001F5600087155000871550008B75600089D
:1055E00033681A1D1B68326004F1420684F84230A9
:1055F00001239DE033682068191D3160060601D53E
:105600001D6803E04506FBD5B3F90050002D03DA11
:105610002D236D4284F8433059480A2311E0216854
:105620003368080653F8045B02D4490648BFADB29C
:105630006F2F5348336014BF0A230823002184F8D6
:1056400043106668A660002EA2BF216821F0040105
:1056500021600DB9002E4BD01646B5FBF3F103FBCC
:105660001157C75D06F8017D2F46BB420D46F4D9A0
:10567000082B0BD12368DF0708D52369616899429D
:10568000DEBF302306F8013C06F1FF36921B226193
:10569000CDF800A04B4603AA21464046FFF7E6FEA0
:1056A00001304AD14FF0FF3004B0BDE8F0872368E5
:1056B00043F0200323603348782784F8457023683B
:1056C00031681F0651F8045B02D45F0648BFADB2D3
:1056D0003160D90744BF43F0200323601DB110237C
:1056E000ACE72748E9E7236823F020032360F6E7C7
:1056F0001646BDE7336825686169181D30602E06BF
:105700001B6801D5196002E06806FBD519800023EB
:1057100023611646BCE733681A1D32601E68626852
:1057200000213046FAF75CFD08B1801B60606368B9
:105730002361002384F84330AAE7236932464946AF
:105740004046D0470130ADD023689B0713D4E068B2
:10575000039B9842B8BF1846A6E701233246494644
:105760004046D04701309DD00135E36803995B1A6C
:10577000AB42F2DCEBE7002504F11906F5E700BFC8
:105780004559000856590008884210B501EB02043B
:1057900002D98442234607D8431EA14208D011F8FB
:1057A000012B03F8012FF8E7024401468A4200D199
:1057B00010BD13F8014D02F8014DF7E738B5064D5D
:1057C0000023044608462B60FBF7AEF9431C02D1C8
:1057D0002B6803B1236038BD183001202DE9F0415A
:1057E000804615460C4621B9BDE8F0411146FFF749
:1057F00059BC2AB9FFF7EAFB00242046BDE8F08136
:1058000000F01AF88542064602D8B5EB500FF4D8DE
:1058100029464046FFF746FC07460028ECD0B54233
:105820002A46214628BF3246FFF7C2FB21464046A2
:10583000FFF7CCFB3C46E0E751F8043C181F002B77
:10584000BCBF0B58C0187047F8B500BFF8BC08BC07
:105850009E467047F8B500BFF8BC08BC9E4670472E
:105860004C4544007461736B20312073756363652C
:10587000737366756C6C79206372656174656420FE
:105880000A0D00007461736B2031206661696C65DC
:1058900064200A0D0000000048454C4C4F000000F9
:1058A0007461736B203220737563636573736675FF
:1058B0006C6C792063726561746564200A0D000068
:1058C0007461736B2032206661696C6564200A0D17
:1058D00000000000546F67676C696E6720626C752A
:1058E00065206C696768740A0D000000546F676773
:1058F0006C696E6720677265656E206C6967687495
:105900000A0D000049444C4500000000546D72200F
:1059100053766300546D72510000000000000000D7
:10592000000000000102030406070809000000004F
:1059300001020304232D302B2000686C4C006566A7
:1059400067454647003031323334353637383941D0
:1059500042434445460030313233343536373839E6
:085960006162636465660000EA
:0859680068A8FF7F01000000A8
:04597000B501000875
:045974009101000895
:105978000024F400100000000100000004000000F2
:10598800AAAAAAAA1800002000000000E02E012000
:10599800482F0120B02F0120000000000000000067
:1059A80000000000000000000000000000000000EF
:1059B80000000000000000000000000000000000DF
:1059C80000000000000000000000000000000000CF
:0459D80000000000CB
:0400000508000BB92B
:00000001FF
